:10000000A2EF0EF00000000000EF00F00000000082
:0A0010000000000000000000F3D71C
:06001C00000000001200CC
:100022000F0E0C6E470E0D6E0D2EFED70C2EFCD74A
:06003200000000001200B6
:0A003800210E0D6E0D2EFED71200F2
:0E004200026A016A006A086A036A000E120070
:100050000B840BAE33EF00F0010E036E026A016AEF
:0A006000006A0A360232FF0E120099
:08006A000AAE029E000E120016
:100072000B820BAE43EF00F0036802680168006870
:080082000A360232FF0E1200E3
:10008A00086A096A100E0C6E0134083609360450E3
:10009A00085E0550D8A0053C095ED8B007D00450C8
:1000AA0008260550D8B0053C0926D89000360136F6
:0600BA000C2EEAD7120033
:1000C0000101E8BF02D0819C01D0818CE8BD02D043
:1000D000819A01D0818AE8BB02D0819801D08188C1
:1000E000E8B902D0819601D0818688B102D08182A0
:1000F00001D08192818492DF8194E8B702D0819C03
:1001000001D0818CE8B502D0819A01D0818AE8B310
:1001100002D0819801D08188E8B102D0819601D0C7
:10012000818688B102D0818201D08192818476DF7C
:0E013000819488A102D075DF01D07EDF12001D
:08013E000B6A0B86FF0E120094
:100146000A6A0350D8A40A800750D8A40A820A5023
:10015600D8B406EF01F0030AD8B4BFEF00F00AB036
:10016600BAEF00F006AE04EF01F002EF01F002AEC6
:1001760002EF01F004EF01F00250800B0A6E029EBE
:100186000650800B069E0A18D8B4D0EF00F00A502D
:10019600D8B402EF01F004EF01F00750035CD8B4C5
:1001A600DAEF00F0D8A0F6EF00F0FCEF00F0065012
:1001B600025CD8B4E4EF00F0D8A0F6EF00F0FCEF54
:1001C60000F00550015CD8B4EEEF00F0D8A0F6EFD1
:1001D60000F0FCEF00F00450005CD8B406EF01F02C
:1001E600D8B0FCEF00F00A52D8B404EF01F002EFE9
:1001F60001F00A52D8B402EF01F004EF01F0D88002
:0E0206001200D8901200D880D8841200120086
:100214000CB04CEF01F00CA2F2EF01F00E6A000EEC
:10022400026463EF01F0F00E0214D8A42EEF01F083
:10023400023A01380F0B02260138F00B016E003828
:100244000F0B01260038F00B006E08380F0B002648
:100254000838F00B086E0E84D89002BE47EF01F008
:1002640008360036013602360E2A02BE47EF01F088
:1002740008360036013602360E2A02BE47EF01F078
:1002840008360036013602360E2A0E500364E8EFB3
:1002940001F0035E0BBC08AEEDEF01F0D880800ED8
:1002A40008640030000E002201220222D8A0EDEFE3
:1002B40001F0023201320032034AF2EF01F0EDEFB5
:1002C40001F001C002F000C001F008C000F0086AAB
:1002D400000E0E8602649AEF01F0F00E0214D8A408
:1002E40082EF01F0023A01380F0B02260138F00BBD
:1002F400016E00380F0B01260038F00B006E0E84DF
:10030400D89002BE47EF01F00036013602360E2ABD
:1003140002BE47EF01F00036013602360E2A02BE55
:1003240047EF01F00036013602360E2A47EF01F09E
:1003340001C002F000C001F0006A000E0E960E88A3
:100344000264C7EF01F0F00E0214D8A4B2EF01F07A
:10035400023A01380F0B02260138F00B016E0E84AD
:10036400D89002BE47EF01F0013602360E2A02BED3
:1003740047EF01F0013602360E2A02BE47EF01F0C4
:10038400013602360E2A47EF01F001C002F0016A7D
:10039400000E0E860264F7EF01F0F00E0214D8A4EA
:1003A400D6EF01F0023A0E84D89002BE47EF01F076
:1003B40002360E2A02BE47EF01F002360E2A02BEB2
:1003C40047EF01F002360E2A47EF01F0010E0C6EE2
:1003D4003DDEFAEF01F0020E0C6E45DEFAEF01F09D
:1003E400040E0C6E44DEFAEF01F0080E0C6E27DEEC
:0203F4001200F5
:0C03F6000E0E0D6E0D2EFED70000120042
:100402000C6A0E6A0250D8A41AEF02F001C002F080
:1004120000C001F0006A0E860250D8A41AEF02F062
:1004220001C002F0016A0E960E880250D8B42CEF79
:1004320002F00E50035ED8A4D8A031EF02F0D8909B
:1004420002BE36EF02F0003601360236032E21EFED
:1004520002F031EF02F0010E0C6EF2DD39EF02F024
:10046200020E0C6EF4DD39EF02F0040E0C6EFCDDB0
:02047200120076
:100474000450000A12E10550000A0FE10650000A78
:100484000CE10750000A09E1FF0E006EFF0E016E39
:100494007F0E026EFF0E036EA4D0086A096A07502D
:1004A400D8B4E5EF02F00350D8B4E9EF02F00250FB
:1004B40006180A6E028E068E0E6A02C008F001C08B
:1004C4000CF000C00DF004500D5E0550D8A0053CA2
:1004D4000C5E0650D8A0063C085E086A0C6A0D6AD9
:1004E400D8A07CEF02F0D8900232013200320832F8
:1004F400010E0E6E0750035ED8A089EF02F07E0E47
:100504000E240326D8B0EDEF02F08FEF02F07E0E3A
:100514000E240326D8A0F1EF02F0180E0B6E0D3650
:100524000C3608360036013602360E360450005EAC
:100534000550D8A0053C015E0650D8A0063C025EDA
:1005440006340E120EA0AAEF02F00D80B5EF02F0F1
:10055400045000260550D8B0053C01260650D8B0FA
:10056400062802260D900B2E91EF02F0DBEF02F02D
:10057400D8900036013602360E360450005E05501F
:10058400D8A0053C015E0650D8A0063C025E0634A5
:100594000E10010B0D26D8B00C2AD8B4082AD8A402
:1005A400DBEF02F008320C320D32032AD8B4EDEF3F
:1005B40002F00AAE089E0850026E0C50016E0D50F7
:1005C400006EF3EF02F0010EB8DDF3EF02F0020E5D
:1005D40036DDF3EF02F0040E4ADDF3EF02F0080E0D
:0405E40035DD1200EF
:1005E800E00E046E010E056E030E0424E96E000E83
:1005F8000520EA6E7E0EEE5C006E016A000E015A5E
:10060800E4C1E1FFE5C1E2FF00C0E6FF01C0E6FF8B
:10061800030E0424E16E000E0520E26E7E0EE66EE7
:10062800E0C100F0E1C101F0E2C102F0E3C103F072
:020638001200AE
:10063A0003500718D8A431EF03F002500618D8A4C3
:10064A0031EF03F001500518D8A431EF03F0005040
:0E065A000418D8B4D8841200D89412001200EC
:0E06680001018891E0C1E8F127DD88811200D0
:0C06760072B201D0FDD7E0C173FF12008A
:100682000101E46B050EE45D0AE2E451E225E16E4C
:10069200000EE321E26E200EE66EE42BF3D7E45166
:1006A200E225E16E000EE321E26EE66AE407E45120
:1006B200E225E56F000EE321E66F0A0E046E000EDE
:1006C200056EE0C100F0E1C101F0DEDC08C000F01F
:1006D20009C001F0300E0026E5C1E1FFE6C1E2FFEC
:1006E20000C0E6FF0A0E046E000E056EE0C100F0C7
:1006F200E1C101F0C9DC00C0E0F101C0E1F1000E8E
:10070200011802E1000E001801E102D0E407CFD780
:020712001200D3
:100714000134083609360450085E0550D8A0053C5B
:10072400095E003601360F0E0C6E013408360936A8
:10073400045000A006D0085E0550D8A0053C095E10
:1007440005D008260550D8B0053C092600360136E8
:100754000C2EEBD700B006D0045008260550D8B0B4
:08076400053C0926000012000B
:10076C00025006180E6E086A096A0B6A0350076479
:10077C00A9EF04F006500A6E068E028E03500B6E23
:10078C000750036E000E0B64F9EF03F00B50075E7D
:10079C00D8B49AEF04F0070E076468EF04F0075E14
:1007AC0000C008F001C000F002C001F0026A074E60
:1007BC009AEF04F007643DEF04F0075E00C008F008
:1007CC0001C000F0016A074E9AEF04F007641BEFBA
:1007DC0004F0075E00C008F0006A074E9AEF04F0C0
:1007EC00076402EF04F00AC002F005C001F004C077
:1007FC0000F0086AC6EF05F0030E07640DEF04F075
:10080C00075E08380F0B086E074E9AEF04F0D8906D
:10081C000832074E9AEF04F0D8900832074E9AEF40
:10082C0004F0D89008329AEF04F0030E07642CEF12
:10083C0004F0075E08380F0B086E0038F00B082622
:10084C0000380F0B006E074E9AEF04F0D890003270
:10085C000832074E9AEF04F0D89000320832074E57
:10086C009AEF04F0D890003208329AEF04F0030E9D
:10087C00076454EF04F0075E08380F0B086E00385D
:10088C00F00B082600380F0B006E0138F00B002619
:10089C0001380F0B016E074E9AEF04F0D89001321D
:1008AC0000320832074E9AEF04F0D8900132003231
:1008BC000832074E9AEF04F0D89001320032083219
:1008CC009AEF04F0030E076485EF04F0075E083816
:1008DC000F0B086E0038F00B082600380F0B006E5B
:1008EC000138F00B002601380F0B016E0238F00BAB
:1008FC00012602380F0B026E074E9AEF04F0D890C7
:10090C000232013200320832074E9AEF04F0D890CE
:10091C000232013200320832074E9AEF04F0D890BE
:10092C000232013200320832096A000E0EAE8EEF2E
:10093C0005F0081E001E011E021E082A00220122BC
:10094C0002228EEF05F00750D8A4AFEF04F0C6EFEB
:10095C0005F0096A02C00AF0028E068E0750035C8D
:10096C00076ED8B481EF05F0070E07644FEF05F062
:10097C00075E0450096E0550046E0650056E066A3B
:10098C00074E81EF05F0070E076424EF05F0075EB4
:10099C000450096E0550046E056A074E81EF05F090
:1009AC00070E076402EF05F0075E0450096E046A37
:1009BC00074E81EF05F0070E0764E9EF04F00AC05B
:1009CC0002F0C6EF05F0030E0764F4EF04F0075EC7
:1009DC0009380F0B096E074E81EF05F0D8900932DC
:1009EC00074E81EF05F0D8900932074E81EF05F0E4
:1009FC00D890093281EF05F0030E076413EF05F070
:100A0C00075E09380F0B096E0438F00B0926043801
:100A1C000F0B046E074E81EF05F0D89004320932AB
:100A2C00074E81EF05F0D89004320932074E81EF62
:100A3C0005F0D8900432093281EF05F0030E0764FB
:100A4C003BEF05F0075E09380F0B096E0438F00B0D
:100A5C00092604380F0B046E0538F00B04260538F4
:100A6C000F0B056E074E81EF05F0D890053204325E
:100A7C000932074E81EF05F0D89005320432093265
:100A8C00074E81EF05F0D89005320432093281EF20
:100A9C0005F0030E07646CEF05F0075E09380F0BC9
:100AAC00096E0438F00B092604380F0B046E053858
:100ABC00F00B042605380F0B056E0638F00B0526D7
:100ACC0006380F0B066E074E81EF05F0D8900632F4
:100ADC00053204320932074E81EF05F0D890063208
:100AEC00053204320932074E81EF05F0D8900632F8
:100AFC00053204320932086A000E0EAE8EEF05F094
:100B0C00091E041E051E061E092A042205220622A1
:100B1C0009500826045000220550012206500222DA
:100B2C000EBEA5EF05F0D8A0B4EF05F002320132ED
:100B3C0000320832033EB4EF05F0C0EF05F0D8B038
:100B4C00BAEF05F0000E081E001E011E021E082A38
:100B5C000022012202220A7EBAEF05F0010E0C6E71
:100B6C000AEC01F0C8EF05F0020E0C6E0AEC01F075
:100B7C00C8EF05F0040E0C6E39EC00F0C8EF05F070
:060B8C00000E0C6E1200C9
:100B9200E00E0101E66F010EE76F030EE625D96E46
:100BA200000EE721DA6EDE50E425016E000EE5212B
:100BB200026E01C0E4F102C0E5F1800E0218006E7F
:100BC200800E005C02E1000E015C05E2006A016A2F
:100BD200026A036A3FD0800E006E800EE519005C47
:100BE20002E1E451FF0826E2046A056A066A076A1E
:100BF200E0C100F0E1C101F0E2C102F0E3C103F0A3
:100C0200A3EC00F0010ED8B0000E006E005209E015
:100C1200FF0E006EFF0E016EFF0E026EFF0E036EE0
:100C220019D0FF0E006EFF0E016E7F0E026EFF0ED8
:100C3200036E10D0030EE625E16E000EE721E26E90
:100C4200E4C1E6FFE0C100F0E1C101F0E2C102F05F
:060C5200E3C103F01200F3
:100C58000050086E0150006E016A026A036A0B6A4E
:100C68000C6A960E036E0A6A00C001F008C000F014
:0A0C7800086A026A01EC02F01200A3
:100C8200C26A0001C61D006E0050C1160F0EC012CE
:100C9200C08ED1C100F000360090003600900050A6
:100CA200C212C280FBEC01F0C282C2A201D0FDD707
:100CB200C4CF01F0006A00C0D2F101C0D3F1C35029
:100CC2000012000E011200C0D2F101C0D3F1C29095
:100CD200000E0014026E0150800B036E000E03180A
:100CE20002E1000E021803E00101D26BD36BD2C104
:080CF20000F0D3C101F0120073
:100CFA00D1C104F0D2C105F0D3C106F0D4C107F0C6
:100D0A00006A016A026A036AA3EC00F0000ED8B016
:100D1A00010E006E005205E0006A016A026A036A67
:100D2A00F6D0D1C1D5F1D2C1D6F1D3C1D7F1D4C150
:100D3A00D8F1000E046E000E056E000E066E7F0ED0
:100D4A00076ED1C100F0D2C101F0D3C102F0D4C103
:100D5A0003F0A3EC00F0010ED8B0000E006E0052B2
:100D6A001AE0D5C104F0D6C105F0D7C106F0D8C142
:100D7A0007F0000E006E000E016E000E026E7F0E6E
:100D8A00036E3AEC02F000C0D5F101C0D6F102C000
:100D9A00D7F103C0D8F1D5C1E0F1D6C1E1F1D7C18D
:100DAA00E2F1D8C1E3F1DE0E0101E46F010EE56F55
:100DBA0016DC00C0D5F101C0D6F102C0D7F103C0DC
:100DCA00D8F100C0E0F101C0E1F102C0E2F103C0D4
:100DDA00E3F1DEC1E4F1DFC1E5F1E533E433E59F98
:100DEA00E5BDE58FE5AF03D002E3E44BE52BCCDEAE
:100DFA0000C0D5F101C0D6F102C0D7F103C0D8F1C5
:100E0A00000E046E000E056E000E066E7F0E076E53
:100E1A00D1C100F0D2C101F0D3C102F0D4C103F0B4
:100E2A00A3EC00F0010ED8B0000E006E00521AE0DA
:100E3A00D5C104F0D6C105F0D7C106F0D8C107F074
:100E4A00000E006E000E016E000E026E7F0E036E23
:100E5A003AEC02F000C0D5F101C0D6F102C0D7F1D8
:100E6A0003C0D8F1140E0101DD6FD5C104F0D6C15B
:100E7A0005F0D7C106F0D8C107F0D1C100F0D2C140
:100E8A0001F0D3C102F0D4C103F03AEC02F0D5C1AB
:100E9A0004F0D6C105F0D7C106F0D8C107F061DC6D
:100EAA00000E046E000E056E000E066E800E076EB2
:100EBA003AEC02F000C0D9F101C0DAF102C0DBF16C
:100ECA0003C0DCF1D5C104F0D6C105F0D7C106F0E4
:100EDA00D8C107F01DEC03F0010ED8A4000E006E75
:100EEA00005201E00CD0D9C1D5F1DAC1D6F1DBC18B
:100EFA00D7F1DCC1D8F10101DD07DD53B6E1D5C177
:100F0A0000F0D6C101F0D7C102F0D8C103F0120037
:100F1A00086A096A000E0762036412EF08F00250B9
:100F2A0006180A6E075003267E0ED8A0A3EF07F014
:100F3A00035ED8B017EF08F0A7EF07F0035ED8A05A
:100F4A001CEF08F0028E068E02C00EF001C00BF0F4
:100F5A0000C00DF000500402F4CF0CF0015005025D
:100F6A00F4CF00F0F3CF08F00402F3500C26F4504B
:100F7A000822000E00220D500502F3500C26F450F0
:100F8A000822000E002202500402F3500826F450F0
:100F9A00002202500502016A000E0122F3500026C7
:100FAA00F45001220D500602F3500826F450002294
:100FBA00026A000E012202220B500602F35000269A
:100FCA00F4500122000E02220E500602F3500126AE
:100FDA00F450022202BEFAEF07F008360036013654
:100FEA0002360306D8B41CEF08F00DEF08F0D880DB
:100FFA00800E08640030000E002201220222D8A0CE
:10100A000DEF08F0023201320032034A17EF08F0FE
:10101A000AAE029E000E1FEF08F0010E21EC00F04E
:10102A001FEF08F0020E39EC00F01FEF08F0040E73
:06103A0028EC00F012009A
:1010400010D0800E0101D16F1AD0C00ED16F17D011
:10105000940ED16F14D0D40ED16F11D0800ED16FF9
:101060000ED00101D151010AECE0D151020AEDE0AC
:10107000D151030AEDE0D151040AEDE0EFD7D205DA
:10108000006ED151002600C0D1F100C0E8F160EC43
:1010900000F08891D56BD551D325E96E000ED4218F
:1010A000EA6EEE520CE0D551D325E96E000ED42144
:1010B000EA6EEECFE0F134EC03F0D52BECD788816B
:0210C00012001C
:1010C2000101D46BD1C1E9FFD2C1EAFFEECFD3F166
:1010D200D351000A0FE0D3C1E0F13BEC03F0010170
:1010E200D42BD451D125E96E000ED221EA6EEECF77
:0610F200D3F1EED712005D
:1010F8000101D36BD46BD1C103F0D2C104F0D1C1CB
:1011080005F0D2C106F003C0E9FF04C0EAFFEE50C3
:10111800200A04E1D351D41101E110D0010ED36F9C
:10112800000ED46F03C0E9FF04C0EAFF05C0E1FF69
:1011380006C0E2FFEECFE6FF054A062A03C001F02B
:1011480004C002F0034A042A01C0E9FF02C0EAFF12
:10115800EE50000AD8E1D1C100F0D2C101F012006E
:101168000101D76BD86BD1C1D9F1D2C1DAF1800EA8
:10117800D219006E800E005C02E1000ED15D0BE218
:10118800010ED76F000ED86FD1510008D96FD2C1A8
:10119800DAF1000EDA57D9C1E0F1DAC1E1F1D3C1D1
:1011A800E2F1D4C1E3F141EC03F0060ED56F000E75
:1011B800D66F000E006ED651005C02E1D5510008D2
:1011C80019E2D551D325E16ED651D421E26E010E34
:1011D800D55D006E000ED659016E0050D325E96E1C
:1011E8000150D421EA6EEECFE6FF010ED55F000E66
:1011F800D65BDFD7D3C1E1FFD4C1E2FF200EE66E94
:10120800D751D8111AE0D56BD66BD551D325E96ED5
:10121800D651D421EA6EEE50200A03E1D54BD62BE5
:10122800F4D7010ED55F000ED65BD551D325E16EFC
:0C123800D651D421E26E2D0EE66E12009D
:101244000B800BAE2EEF09F0026A0AAEFF0E026E9F
:0C125400016E006E0A360232FF0E12001E
:101260000450000A08E10550000A05E1FF0E006E77
:101270007F0E016E58D00D6A096A086A015000108D
:10128000D8B4000C015005180A6E0ABE0D1E0B6A78
:1012900005AE05D0041E051E042AD8B4052A01AEE9
:1012A00005D0001E011E002AD8B4012A01500510E5
:1012B0000A6E0ABE10D08AEC03F00BB020D00DAE3F
:1012C000000C001E011E002AD8B4012A081E091EA7
:1012D000082AD8B4092A000C05AE0DD001BE07D0EB
:1012E0000150096E0050086E016A006AE8D7016A71
:1012F000006A002A000C011E001E0B2ADDD7082AF6
:10130000D8B4092A0450085CD8A4D9D70550095C80
:10131000D8A4D5D7096A086A002AD8B4012A01AE30
:08132000CED70000FF0C120003
:10132800016A1E0E015C0CE28D0EE16E010EE26E8A
:101338000150E126D8B0E22A200EE66E012AF1D744
:02134800120091
:10134A00D1C104F0D2C105F004C0E9FF05C0EAFF2B
:10135A00EE5203E0044A052AF7D704C002F005C09A
:10136A0003F0044A052AD3C100F0D4C101F00101F7
:10137A00D34BD42B00C0E9FF01C0EAFF02C0E1FF52
:10138A0003C0E2FFEECFE6FF02C0E9FF03C0EAFFB7
:10139A00EE5201E0E2D7D1C100F0D2C101F0120051
:1013AA000101CB6BCC6BCD6BCE6BCF6BD06BC96BAA
:1013BA00CA6B800ECA19006E800E010A005C02E137
:1013CA00F40EC95D31E2C7C1D1F156DC00C0CBF1E0
:1013DA0001C0CCF13CDC00C004F001C005F002C041
:1013EA0006F003C007F0CDC100F0CEC101F0CFC1B5
:1013FA0002F0D0C103F0A3EC00F0010ED8B0000E49
:10140A00006E005200E0CBC100F0CCC101F01FDC3D
:10141A0000C0CDF101C0CEF102C0CFF103C0D0F1BE
:10142A000101C94BCA2BC5D7CDC100F0CEC101F00D
:10143A00CFC102F0D0C103F0000E046E000E056E9B
:10144A00200E066E810E076E63DD000E046EC00E5E
:10145A00056E7F0E066E880E076E3AEC02F000C02B
:10146A00CDF101C0CEF102C0CFF103C0D0F1000E20
:10147A00046E000E056E000E066E810E076E48DDC4
:10148A0000C0CDF101C0CEF102C0CFF103C0D0F14E
:10149A00330E046E330E056E330E066E7F0E076E24
:1014AA00B6EC03F000C0CDF101C0CEF102C0CFF11D
:1014BA0003C0D0F1000E046E000E056E100E066E0B
:1014CA00830E076E25DD00C0CDF101C0CEF102C04A
:1014DA00CFF103C0D0F1000E0101D16F000ED26F1F
:1014EA00000ED36F800ED46F03DC00C004F001C07D
:1014FA0005F002C006F003C007F0000E006E000EF1
:10150A00016E000E026E7F0E036E3AEC02F0CDC140
:10151A0004F0CEC105F0CFC106F0D0C107F0F8DC67
:10152A0000C0CDF101C0CEF102C0CFF103C0D0F1AD
:10153A00340E0C6EF10E0D6E0D2EFED70C2EFCD74E
:10154A0000000000CDC100F0CEC101F0CFC102F011
:06155A00D0C103F01200F5
:101560000900F5CFE6FF0006FBE10106F9E11200F4
:10157000FF0E01017E6FFF0E7F6FFF0E806FFF0E6B
:10158000816FC26A0001C61D006E0050C1160F0EA9
:08159000C012C08EC2801200DF
:101598009394939293969398939A939C819481921F
:1015A800819C819A8198819611EC00F011EC00F0F1
:1015B80011EC00F08188818681840EEC00F0819422
:1015C80011EC00F081840EEC00F0819411EC00F035
:1015D80081840EEC00F0819411EC00F081968184F6
:1015E8000EEC00F0819411EC00F081840EEC00F018
:1015F80081948198818C81840EEC00F0819411ECA7
:1016080000F0819C818681840EEC00F081948196A3
:1016180081840EEC00F0819411EC00F081840EECD2
:1016280000F08194818681840EEC00F0819411ECA5
:1016380000F0819681840EEC00F08194818C818A7F
:101648008188818681840EEC00F0819411EC00F091
:061658000101888112006F
:10165E00760E0101896F060E8A6FE00E8B6F010EFA
:10166E008C6FFF0E846FFF0E856F000E866F000E5F
:10167E00876FFF0EBF6FFF0EC06F000EC16F000EA3
:10168E00C26FFF0EC36FFF0EC46F000EC56F000E4C
:10169E00C66F728A900E716E958E959CA4AA03D019
:0816AE0074CF00F0FBD712001D
:1016B6006AC0D1F16BC0D2F1760E0101D36F010E73
:1016C600D46F4FDD760ED16F010ED26F12DD00C0E2
:1016D600D3F101C0D4F1010ED16F060ED26FADDC8D
:1016E6009BC0D1F19CC0D2F16D0ED36F010ED46FA9
:1016F60038DD6D0ED16F010ED26FFBDC00C0D3F169
:1017060001C0D4F1010ED16F120ED26F96DC85C0E6
:10171600D1F186C0D2F1720ED36F010ED46F21DDE6
:10172600720ED16F010ED26FE4DC00C0D3F101C09E
:10173600D4F1020ED16F0C0ED26F7FDC010ED16F89
:10174600010ED26F150ED36F000ED46F76DC010E2C
:10175600D16F090ED26F1B0ED36F000ED46F6DDCE6
:10176600010ED16F0D0ED26F1D0ED36F000ED46F0A
:1017760064DC010ED16F140ED26F380ED36F000EDB
:10178600D46F5BDC020ED16F060ED26F3A0ED36FAA
:10179600000ED46F52DC020ED16F0E0ED26F230EE6
:0A17A600D36F000ED46F49DC12006F
:1017B00001018D6B8D0ED16F010ED26F440ED36F70
:1017C000010ED46FC2DD8D0ED16F010ED26F79DCA8
:1017D0000D0EE06F3BEC03F00A0E0101E06F3BECF5
:1017E00003F001017B6B150E0B6E4B0E0C6EBE0EE3
:1017F0000D6E0D2EFED70C2EFCD70B2EFAD7000047
:1018000093DD01018D6B8D0ED16F010ED26F6C0EC9
:10181000D36F000ED46F99DD8D0ED16F010ED26F94
:1018200050DC0D0EE06F3BEC03F00A0E0101E06F9F
:101830003BEC03F0150E0B6E4B0E0C6EBE0E0D6ED8
:101840000D2EFED70C2EFCD70B2EFAD700006CDD28
:1018500001018D6B8D0ED16F010ED26F410ED36FD2
:10186000000ED46F72DD8D0ED16F010ED26F29DCA8
:10187000E80E046E030E056E6AC000F06BC001F046
:10188000EFDC300E00240101E06F3BEC03F0E80ECA
:10189000046E030E056E6AC000F06BC001F0E0DC60
:1018A00008C000F009C001F0640E046E000E056E61
:1018B000D7DC300E00240101E06F3BEC03F0640E36
:1018C000046E000E056E6AC000F06BC001F0C8DC4B
:1018D00008C000F009C001F00A0E046E000E056E8B
:1018E000BFDC300E00240101E06F3BEC03F00A0E78
:1018F000046E000E056E6AC000F06BC001F0B0DC33
:1019000008C000F009C001F0300E00240101E06FB2
:101910003BEC03F07C0E0101D16F000ED26F61EC45
:1019200008F0E80E046E030E056E9BC000F09CC02C
:1019300001F096DC300E00240101E06F3BEC03F077
:10194000E80E046E030E056E9BC000F09CC001F013
:1019500087DC08C000F009C001F0640E046E000EC0
:10196000056E7EDC300E00240101E06F3BEC03F0DD
:10197000640E046E000E056E9BC000F09CC001F06A
:101980006FDC08C000F009C001F00A0E046E000E02
:10199000056E66DC300E00240101E06F3BEC03F0C5
:1019A0000A0E046E000E056E9BC000F09CC001F094
:1019B00057DC08C000F009C001F0300E002401011E
:1019C000E06F3BEC03F09D0E0101D16F000ED26F72
:1019D00061EC08F0E80E046E030E056E85C000F0A1
:1019E00086C001F03DDC300E00240101E06F3BECCD
:1019F00003F0E80E046E030E056E85C000F086C08D
:101A000001F02EDC08C000F009C001F0640E046E85
:101A1000000E056E25DC300E00240101E06F3BEC6A
:101A200003F0640E046E000E056E85C000F086C0E3
:101A300001F016DC08C000F009C001F00A0E046EC7
:101A4000000E056E0DDC300E00240101E06F3BEC52
:101A500003F00A0E046E000E056E85C000F086C00D
:101A600001F030EC09F008C000F009C001F0300EC0
:101A700000240101E06F3BEC03F00D0E0101E06F6B
:101A80003BEC03F00A0E0101E06F3BEC03F01F0E8C
:101A90000B6E710E0C6E1E0E0D6E0D2EFED70C2EE3
:101AA000FCD70B2EFAD7000001018D6B870ED16F8A
:0A1AB000000ED26F61EC08F0120086
:101ABA000B6A0350D8B4A3EF0DF002500A6E028EDF
:101ACA008E0E035E03AEA7EF0DF0036C080E035CE7
:101ADA00D8A082EF0DF0036E013602C001F0026A4F
:101AEA00080E035CD8A082EF0DF0036E0136016A7E
:101AFA000350D8A4D8908CEF0DF00350D8B48CEFD3
:101B0A000DF0D89002320132032E86EF0DF00BBC95
:101B1A0001A099EF0DF0D8A099EF0DF0012AD8B4E1
:101B2A00022A02BEB6EF0DF00AAEBCEF0DF0021E9D
:101B3A00011E012AD8B4022ABCEF0DF0026A016A1A
:101B4A00BCEF0DF00B800BAEC0EF0DF0026A0AAECF
:101B5A00C0EF0DF0FF0E026E016E0A360232C0EFC0
:101B6A000DF0010E0C6E22EC09F0C2EF0DF0000E22
:101B7A000C6EC2EF0DF0FF0E0C6E0150006E02509B
:041B8A00016E1200D6
:101B8E000101CB6BCC6BCD6BCE6BCF6BD06BC96BBE
:101B9E00CA6B800ECA19006E800E010A005C02E14B
:101BAE00F40EC95D34E2C7C1D1F141EC06F000C0BC
:101BBE00CBF101C0CCF12CEC06F000C004F001C05A
:101BCE0005F002C006F003C007F0CDC100F0CEC193
:101BDE0001F0CFC102F0D0C103F0A3EC00F0010E72
:101BEE00D8B0000E006E005200E0CBC100F0CCC1A8
:101BFE0001F02CEC06F000C0CDF101C0CEF102C018
:101C0E00CFF103C0D0F10101C94BCA2BC2D7CDC150
:101C1E0000F0CEC101F0CFC102F0D0C103F0000E32
:101C2E00046E000E056E200E066E810E076E8DEC94
:101C3E0007F0000E046E000E056E000E066E890E85
:101C4E00076E3AEC02F000C0CDF101C0CEF102C039
:101C5E00CFF103C0D0F1000E046E000E056E000E23
:101C6E00066E800E076E3AEC02F000C0CDF101C098
:101C7E00CEF102C0CFF103C0D0F1000E0101D16F41
:101C8E00000ED26F000ED36F800ED46F7DEC06F077
:101C9E0000C004F001C005F002C006F003C007F05A
:101CAE00000E006E000E016E000E026E7F0E036EB1
:101CBE003AEC02F0CDC104F0CEC105F0CFC106F072
:101CCE00D0C107F08DEC07F000C0CDF101C0CEF110
:101CDE0002C0CFF103C0D0F1000E046E000E056EEF
:101CEE007A0E066E880E076E8DEC07F0000E046EEF
:101CFE00000E056E040E066E850E076E3AEC02F0AF
:101D0E0000C0CDF101C0CEF102C0CFF103C0D0F1C1
:101D1E00340E0C6EF10E0D6E0D2EFED70C2EFCD762
:101D2E0000000000CDC100F0CEC101F0CFC102F025
:061D3E00D0C103F0120009
:101D44006EEC10F0FF0E0F01386F396B3A6B936A2B
:101D54000DDC20DC010EE86F60EC00F00C0EE86F87
:101D640060EC00F00F01396B3A6B936A0B0E0B6E4B
:101D7400260E0C6E5D0E0D6E0D2EFED70C2EFCD7AE
:101D84000B2EFAD700000000D398D38AD38CF28E9E
:101D9400F28AF28C7086766ACF0E756E72845DDC80
:101DA400B8EC0AF0020E0101D16F020ED26F250EBB
:101DB400D36F000ED46F20EC08F0030ED16F070E22
:101DC400D26FDC0ED36F000ED46F20EC08F00B0E34
:101DD4000B6E260E0C6E5D0E0D6E0D2EFED70C2EA8
:101DE400FCD70B2EFAD70000000094EC09F0E40EA7
:101DF4000101D16F000ED26F61EC08F00B0E0B6E77
:101E0400260E0C6E5D0E0D6E0D2EFED70C2EFCD71D
:101E14000B2EFAD700000000C70ED16F000ED26F50
:101E240061EC08F0CE0ED16F000ED26F61EC08F0B9
:101E3400E90ED16F000ED26F61EC08F02B0ED16F5A
:101E4400010ED26F61EC08F00B0E0B6E260E0C6EB9
:101E54005D0E0D6E0D2EFED70C2EFCD70B2EFAD771
:101E640000000000010EE86F60EC00F094EC09F053
:101E7400030E0101D16F060ED26F390ED36F010E1E
:101E8400D46F20EC08F08D6B8D0ED16F010ED26FE4
:101E9400F40ED36F000ED46FA5EC09F08D0ED16F44
:101EA400010ED26F61EC08F00D0EE06F3BEC03F015
:101EB4000A0E0101E06F3BEC03F00B0E0B6E260ED5
:101EC4000C6E5D0E0D6E0D2EFED70C2EFCD70B2E58
:101ED400FAD700000000010E0101E86F60EC00F089
:101EE4007B6BC76BC86BD5EC09F0E5DD00C06AF00D
:101EF40001C06BF0010E0101C76F000EC86F45DE13
:101F0400DADD00C09BF001C09CF0020E0101D16F2C
:101F140041EC06F02CEC06F0230E046EDB0E056E8D
:101F2400790E066E7D0E076E8DEC07F0C4DD00C0E1
:101F340085F001C086F05BEC0BF0680E0C6EE40ECD
:101F44000D6E0D2EFED70C2EFCD70000150E0B6E59
:101F54004B0E0C6EBE0E0D6E0D2EFED70C2EFCD746
:101F64000B2EFAD70000040ED16F050ED26F1D0E92
:101F7400D36F010ED46F20EC08F018DCB2D7FFD772
:1020DC0010EE15F0580E006E020E016E840EF66EA8
:0E20EC001F0EF76E000EF86EB0EC0AF0120038
:061F840056696E3A2000D0
:021F8A005600FF
:061F8C0049696E3A2000D5
:021F920043000A
:101F94005472616E73666F726D6572204865616C10
:031FA4007468005E
:021FA7004100F7
:071FA90054656D703A200041
:101FB000474554202F7570646174653F6B65793DAA
:101FC000305A525047445757515533534341344A7E
:091FD000266669656C64313D0070
:021FD900000006
:101FDB0041542B43495053454E443D342C3730002C
:091FEB00266669656C64323D0054
:021FF4000000EB
:101FF60055706C6F616420537563636573736675A2
:042006006C0D0A0053
:02200A000000D4
:09200C00266669656C64333D0031
:082015007D01830182017C01C1
:08201D007C017D0183018201B9
:0820250082017C017D018301B1
:08202D00830182017C017D01A9
:012035000F9B
:07203600415445300D0A0082
:0E203D0041542B43574D4F44453D330D0A008F
:08204B004D6F6E69746F7200A5
:0520530041540D0A00DC
:0B20580041542B43575141500D0A002A
:1020630041542B43574A41503D224D657468736F69
:10207300667420536D617274204C696665222C224C
:09208300323535343636392200BD
:0E208C0053796E6368726F6E697A696E6700D1
:0E209A0041542B4349504D55583D310D0A001D
:0B20A800636F6E6E656374696E670005
:1020B30041542B43495053544152543D342C2254E0
:1020C3004350222C223138342E3130362E313533E1
:0920D3002E313439222C38300082
:020000040030CA
:0D000100231F3CFFBF81FF0FC00FE00F4029
:00000001FF
